{
	"data": {
		"bytecode": {
			"linkReferences": {},
			"object": "608060405234801561001057600080fd5b506102ad806100206000396000f3fe608060405234801561001057600080fd5b50600436106100415760003560e01c806326ea1c2f14610046578063ddd3efc814610064578063fd1ee54c14610082575b600080fd5b61004e6100b2565b60405161005b9190610187565b60405180910390f35b61006c6100ef565b6040516100799190610187565b60405180910390f35b61009c600480360381019061009791906101d3565b61014a565b6040516100a99190610187565b60405180910390f35b6000806000905060005b6103e88110156100e75781806100d19061022f565b92505080806100df9061022f565b9150506100bc565b508091505090565b600080600090505b606481101561014657600a8103156101335760328103156101465760005b60648110156101315780806101299061022f565b915050610115565b505b808061013e9061022f565b9150506100f7565b5090565b6000818154811061015a57600080fd5b906000526020600020016000915090505481565b6000819050919050565b6101818161016e565b82525050565b600060208201905061019c6000830184610178565b92915050565b600080fd5b6101b08161016e565b81146101bb57600080fd5b50565b6000813590506101cd816101a7565b92915050565b6000602082840312156101e9576101e86101a2565b5b60006101f7848285016101be565b91505092915050565b7f4e487b7100000000000000000000000000000000000000000000000000000000600052601160045260246000fd5b600061023a8261016e565b91507fffffffffffffffffffffffffffffffffffffffffffffffffffffffffffffffff820361026c5761026b610200565b5b60018201905091905056fea2646970667358221220c2a11a526be0bad1abc495385d56428606e80560f37f26ed8c2c14872af8c4eb64736f6c63430008120033",
			"opcodes": "PUSH1 0x80 PUSH1 0x40 MSTORE CALLVALUE DUP1 ISZERO PUSH2 0x10 JUMPI PUSH1 0x0 DUP1 REVERT JUMPDEST POP PUSH2 0x2AD DUP1 PUSH2 0x20 PUSH1 0x0 CODECOPY PUSH1 0x0 RETURN INVALID PUSH1 0x80 PUSH1 0x40 MSTORE CALLVALUE DUP1 ISZERO PUSH2 0x10 JUMPI PUSH1 0x0 DUP1 REVERT JUMPDEST POP PUSH1 0x4 CALLDATASIZE LT PUSH2 0x41 JUMPI PUSH1 0x0 CALLDATALOAD PUSH1 0xE0 SHR DUP1 PUSH4 0x26EA1C2F EQ PUSH2 0x46 JUMPI DUP1 PUSH4 0xDDD3EFC8 EQ PUSH2 0x64 JUMPI DUP1 PUSH4 0xFD1EE54C EQ PUSH2 0x82 JUMPI JUMPDEST PUSH1 0x0 DUP1 REVERT JUMPDEST PUSH2 0x4E PUSH2 0xB2 JUMP JUMPDEST PUSH1 0x40 MLOAD PUSH2 0x5B SWAP2 SWAP1 PUSH2 0x187 JUMP JUMPDEST PUSH1 0x40 MLOAD DUP1 SWAP2 SUB SWAP1 RETURN JUMPDEST PUSH2 0x6C PUSH2 0xEF JUMP JUMPDEST PUSH1 0x40 MLOAD PUSH2 0x79 SWAP2 SWAP1 PUSH2 0x187 JUMP JUMPDEST PUSH1 0x40 MLOAD DUP1 SWAP2 SUB SWAP1 RETURN JUMPDEST PUSH2 0x9C PUSH1 0x4 DUP1 CALLDATASIZE SUB DUP2 ADD SWAP1 PUSH2 0x97 SWAP2 SWAP1 PUSH2 0x1D3 JUMP JUMPDEST PUSH2 0x14A JUMP JUMPDEST PUSH1 0x40 MLOAD PUSH2 0xA9 SWAP2 SWAP1 PUSH2 0x187 JUMP JUMPDEST PUSH1 0x40 MLOAD DUP1 SWAP2 SUB SWAP1 RETURN JUMPDEST PUSH1 0x0 DUP1 PUSH1 0x0 SWAP1 POP PUSH1 0x0 JUMPDEST PUSH2 0x3E8 DUP2 LT ISZERO PUSH2 0xE7 JUMPI DUP2 DUP1 PUSH2 0xD1 SWAP1 PUSH2 0x22F JUMP JUMPDEST SWAP3 POP POP DUP1 DUP1 PUSH2 0xDF SWAP1 PUSH2 0x22F JUMP JUMPDEST SWAP2 POP POP PUSH2 0xBC JUMP JUMPDEST POP DUP1 SWAP2 POP POP SWAP1 JUMP JUMPDEST PUSH1 0x0 DUP1 PUSH1 0x0 SWAP1 POP JUMPDEST PUSH1 0x64 DUP2 LT ISZERO PUSH2 0x146 JUMPI PUSH1 0xA DUP2 SUB ISZERO PUSH2 0x133 JUMPI PUSH1 0x32 DUP2 SUB ISZERO PUSH2 0x146 JUMPI PUSH1 0x0 JUMPDEST PUSH1 0x64 DUP2 LT ISZERO PUSH2 0x131 JUMPI DUP1 DUP1 PUSH2 0x129 SWAP1 PUSH2 0x22F JUMP JUMPDEST SWAP2 POP POP PUSH2 0x115 JUMP JUMPDEST POP JUMPDEST DUP1 DUP1 PUSH2 0x13E SWAP1 PUSH2 0x22F JUMP JUMPDEST SWAP2 POP POP PUSH2 0xF7 JUMP JUMPDEST POP SWAP1 JUMP JUMPDEST PUSH1 0x0 DUP2 DUP2 SLOAD DUP2 LT PUSH2 0x15A JUMPI PUSH1 0x0 DUP1 REVERT JUMPDEST SWAP1 PUSH1 0x0 MSTORE PUSH1 0x20 PUSH1 0x0 KECCAK256 ADD PUSH1 0x0 SWAP2 POP SWAP1 POP SLOAD DUP2 JUMP JUMPDEST PUSH1 0x0 DUP2 SWAP1 POP SWAP2 SWAP1 POP JUMP JUMPDEST PUSH2 0x181 DUP2 PUSH2 0x16E JUMP JUMPDEST DUP3 MSTORE POP POP JUMP JUMPDEST PUSH1 0x0 PUSH1 0x20 DUP3 ADD SWAP1 POP PUSH2 0x19C PUSH1 0x0 DUP4 ADD DUP5 PUSH2 0x178 JUMP JUMPDEST SWAP3 SWAP2 POP POP JUMP JUMPDEST PUSH1 0x0 DUP1 REVERT JUMPDEST PUSH2 0x1B0 DUP2 PUSH2 0x16E JUMP JUMPDEST DUP2 EQ PUSH2 0x1BB JUMPI PUSH1 0x0 DUP1 REVERT JUMPDEST POP JUMP JUMPDEST PUSH1 0x0 DUP2 CALLDATALOAD SWAP1 POP PUSH2 0x1CD DUP2 PUSH2 0x1A7 JUMP JUMPDEST SWAP3 SWAP2 POP POP JUMP JUMPDEST PUSH1 0x0 PUSH1 0x20 DUP3 DUP5 SUB SLT ISZERO PUSH2 0x1E9 JUMPI PUSH2 0x1E8 PUSH2 0x1A2 JUMP JUMPDEST JUMPDEST PUSH1 0x0 PUSH2 0x1F7 DUP5 DUP3 DUP6 ADD PUSH2 0x1BE JUMP JUMPDEST SWAP2 POP POP SWAP3 SWAP2 POP POP JUMP JUMPDEST PUSH32 0x4E487B7100000000000000000000000000000000000000000000000000000000 PUSH1 0x0 MSTORE PUSH1 0x11 PUSH1 0x4 MSTORE PUSH1 0x24 PUSH1 0x0 REVERT JUMPDEST PUSH1 0x0 PUSH2 0x23A DUP3 PUSH2 0x16E JUMP JUMPDEST SWAP2 POP PUSH32 0xFFFFFFFFFFFFFFFFFFFFFFFFFFFFFFFFFFFFFFFFFFFFFFFFFFFFFFFFFFFFFFFF DUP3 SUB PUSH2 0x26C JUMPI PUSH2 0x26B PUSH2 0x200 JUMP JUMPDEST JUMPDEST PUSH1 0x1 DUP3 ADD SWAP1 POP SWAP2 SWAP1 POP JUMP INVALID LOG2 PUSH5 0x6970667358 0x22 SLT KECCAK256 0xC2 LOG1 BYTE MSTORE PUSH12 0xE0BAD1ABC495385D56428606 0xE8 SDIV PUSH1 0xF3 PUSH32 0x26ED8C2C14872AF8C4EB64736F6C634300081200330000000000000000000000 "
		},
		"gasEstimates": {
			"creation": {
				"codeDepositCost": "137000",
				"executionCost": "183",
				"totalCost": "137183"
			},
			"external": {
				"loopTo100()": "infinite",
				"loopTo1000()": "infinite",
				"nums(uint256)": "infinite"
			}
		},
		"methodIdentifiers": {
			"loopTo100()": "ddd3efc8",
			"loopTo1000()": "26ea1c2f",
			"nums(uint256)": "fd1ee54c"
		}
	},
	"abi": [
		{
			"inputs": [],
			"name": "loopTo100",
			"outputs": [
				{
					"internalType": "uint256",
					"name": "",
					"type": "uint256"
				}
			],
			"stateMutability": "nonpayable",
			"type": "function"
		},
		{
			"inputs": [],
			"name": "loopTo1000",
			"outputs": [
				{
					"internalType": "uint256",
					"name": "",
					"type": "uint256"
				}
			],
			"stateMutability": "pure",
			"type": "function"
		},
		{
			"inputs": [
				{
					"internalType": "uint256",
					"name": "",
					"type": "uint256"
				}
			],
			"name": "nums",
			"outputs": [
				{
					"internalType": "uint256",
					"name": "",
					"type": "uint256"
				}
			],
			"stateMutability": "view",
			"type": "function"
		}
	]
}